:020000040800F2
:1000000000000320AD060008FD060008FD060008FC
:10001000FD060008FD060008FD06000800000000BF
:10002000000000000000000000000000FD060008C5
:10003000FD06000800000000FD060008FD0600089F
:10004000FD060008FD060008FD060008FD06000884
:10005000FD060008FD060008FD060008FD06000874
:10006000FD060008FD060008FD060008FD06000864
:10007000FD060008FD060008FD060008FD06000854
:10008000FD060008FD060008FD060008FD06000844
:10009000FD060008FD060008FD060008FD06000834
:1000A000FD060008FD060008FD060008FD06000824
:1000B000FD060008FD060008FD060008FD06000814
:1000C000FD060008FD060008FD060008FD06000804
:1000D000FD060008FD060008FD060008FD060008F4
:1000E000FD060008FD060008FD060008FD060008E4
:1000F000FD060008FD060008FD060008FD060008D4
:10010000FD060008FD060008FD060008FD060008C3
:10011000FD060008FD060008FD060008FD060008B3
:10012000FD060008FD060008FD060008FD060008A3
:10013000FD060008FD060008FD060008FD06000893
:10014000FD060008FD060008FD060008FD06000883
:10015000FD060008FD060008FD060008FD06000873
:10016000FD060008FD060008FD060008FD06000863
:10017000FD060008FD060008FD060008000000005E
:10018000FD060008FD060008FD060008FD06000843
:10019000FD060008FD060008FD060008FD06000833
:0C01A000FD060008FD060008FD06000832
:1001AC000348044B834202D0034B03B118477047FA
:1001BC000400002004000020000000000548064B4D
:1001CC001B1AD90F01EBA301491002D0034B03B149
:1001DC0018477047040000200400002000000000B5
:1001EC0010B5064C237843B9FFF7DAFF044B13B173
:1001FC000448AFF300800123237010BD04000020DD
:10020C00000000004807000808B5054B1BB1054964
:10021C000548AFF30080BDE80840FFF7CFBF00BF33
:10022C00000000000800002048070008034AD2F82C
:10023C00883043F47003C2F88830704700ED00E05A
:10024C0030B585B0012538E09DF80120002A3CD05E
:10025C000135EDB2062D00D906250023019302E0ED
:10026C00019B01330193019A1C4B9A42F8DD2EE05D
:10027C009DF801305BB3013D15F0FF0500D1012560
:10028C000023029302E0029B01330293029A134B68
:10029C009A42F8DD1BE0E0B200F04EF90134062C76
:1002AC0005DCA542F7D1E0B200F018F9F6E700231F
:1002BC000393039BB3F57A7F0BDB00F085F9ADF864
:1002CC0000009DF80030012BBED0022BD0D00124B1
:1002DC00E5E7039B01330393EBE700BF9F86010027
:1002EC0008B500F007F800F00DF800F0CFF8FFF7B4
:1002FC00A7FF0000024A136B43F00203136370471D
:10030C0000380240604B1A6842F080421A601A684A
:10031C0022F000421A605A6822F400425A609A682D
:10032C0042F080429A609A6822F000429A60DA6841
:10033C0022F08042DA60DA6822F08042DA609A6950
:10034C0042F000429A611A6842F080621A601A68A0
:10035C0022F000621A605A6822F400525A609A68BD
:10036C0042F080629A609A6822F000629A60DA68C1
:10037C0022F08062DA60DA6822F08062DA609A69D0
:10038C0042F000529A611A6842F080721A601A6840
:10039C0022F000721A605A6822F480525A609A68ED
:1003AC0042F080729A609A6822F000729A60DA6861
:1003BC0022F08072DA60DA6822F08072DA609A6970
:1003CC0042F080529A611A6842F480621A601A688C
:1003DC0022F400621A605A6822F020025A609A686D
:1003EC0042F480629A609A6822F400629A60DA6839
:1003FC0022F48062DA60DA6822F48062DA609A6948
:10040C0042F400129A611A6842F040021A601A68AB
:10041C0022F080021A605A6822F008025A609A6828
:10042C0042F040029A609A6822F080029A60DA6880
:10043C0022F04002DA60DA6822F04002DA609A694F
:10044C0042F400229A611A6842F480721A601A68A7
:10045C0022F400721A605A6822F010025A609A68EC
:10046C0042F480729A609A6822F400729A60DA6898
:10047C0022F48072DA60DA6822F48072DA609A69A7
:10048C0042F480129A61704700040240124B1A68C1
:10049C0022F00C021A60DA6822F00C02DA60DA68D8
:1004AC0042F00802DA601A6822F440521A60DA68E4
:1004BC0022F44052DA60DA6842F40052DA601A68C8
:1004CC0022F030021A60DA6822F03002DA60DA6860
:1004DC0042F02002DA60704700040240013805281F
:1004EC0027D8DFE800F003090F151B21114A936987
:1004FC0043F40043936170470E4A936943F40053ED
:10050C00936170470B4A936943F48053936170472E
:10051C00084A936943F0200393617047054A936935
:10052C0043F0080393617047024A936943F0100348
:10053C0093617047000402400138052827D8DFE892
:10054C0000F003090F151B21114A936943F0004376
:10055C00936170470E4A936943F00053936170475F
:10056C000B4A936943F0805393617047084A93692F
:10057C0043F4001393617047054A936943F40023D5
:10058C0093617047024A936943F4801393617047F7
:10059C0000040240022808D003280BD001280ED1F9
:1005AC00084B1869C0F340007047064B1869C0F33C
:1005BC0080107047034B1869C0F38000704700200F
:1005CC00704700BF0004024030B583B00120FFF734
:1005DC00E1FF28B300242546304B1B689C4205D212
:1005EC000120FFF7D7FF08B10134F4E701238DF8A0
:1005FC0000302A4B1B689D4234BF002501258DF825
:10060C000150BDF80030ADF8043000209DF80430E6
:10061C0063F307009DF8053063F30F2003B030BD82
:10062C000220FFF7B7FFB8B1002425461B4B1B680F
:10063C009C4205D20220FFF7ADFF08B10134F4E76C
:10064C0002238DF80030154B1B689D4234BF0025EA
:10065C0001258DF80150D4E70320FFF79BFF28B943
:10066C0000238DF800308DF80130CAE700242546B0
:10067C000A4B1B689C4205D20320FFF78BFF08B185
:10068C000134F4E703238DF80030044B1B689D42C2
:10069C0034BF002501258DF80150B2E70000002081
:1006AC00DFF834D00D480E490E4A002302E0D4582E
:1006BC00C4500433C4188C42F9D30B4A0B4C00239E
:1006CC0001E013600432A242FBD3FFF7AFFD00F050
:1006DC0011F8FFF705FE7047000003200000002012
:1006EC0004000020680700080400002020000020FF
:1006FC00FEE7000070B50D4D0D4C641BA4100026D8
:10070C00A64209D10B4D0C4C00F018F8641BA41038
:10071C000026A64205D170BD55F8043B984701361A
:10072C00EEE755F8043B98470136F2E760070008FE
:10073C00600700086007000864070008F8B500BFF0
:10074C00F8BC08BC9E467047F8B500BFF8BC08BCA6
:04075C009E467047FE
:040760001502000876
:04076400ED0100089B
:0407680020A10700C5
:04000005080006AD3C
:00000001FF
