:020000040800F2
:100000000000032051020008A1020008A10200081C
:10001000A1020008A1020008A102000800000000DF
:10002000000000000000000000000000A102000825
:10003000A102000800000000A1020008A1020008BF
:10004000A1020008A1020008A1020008A102000804
:10005000A1020008A1020008A1020008A1020008F4
:10006000A1020008A1020008A1020008A1020008E4
:10007000A1020008A1020008A1020008A1020008D4
:10008000A1020008A1020008A1020008A1020008C4
:10009000A1020008A1020008A1020008A1020008B4
:1000A000A1020008A1020008A1020008A1020008A4
:1000B000A1020008A1020008A1020008A102000894
:1000C000A1020008A1020008A1020008A102000884
:1000D000A1020008A1020008A1020008A102000874
:1000E000A1020008A1020008A1020008A102000864
:1000F000A1020008A1020008A1020008A102000854
:10010000A1020008A1020008A1020008A102000843
:10011000A1020008A1020008A1020008A102000833
:10012000A1020008A1020008A1020008A102000823
:10013000A1020008A1020008A1020008A102000813
:10014000A1020008A1020008A1020008A102000803
:10015000A1020008A1020008A1020008A1020008F3
:10016000A1020008A1020008A1020008A1020008E3
:10017000A1020008A1020008A1020008000000007E
:10018000A1020008A1020008A1020008A1020008C3
:10019000A1020008A1020008A1020008A1020008B3
:0C01A000A1020008A1020008A102000852
:1001AC000348044B834202D0034B03B118477047FA
:1001BC000000002000000020000000000548064B55
:1001CC001B1AD90F01EBA301491002D0034B03B149
:1001DC0018477047000000200000002000000000BD
:1001EC0010B5064C237843B9FFF7DAFF044B13B173
:1001FC000448AFF300800123237010BD00000020E1
:10020C0000000000EC02000808B5054B1BB10549C5
:10021C000548AFF30080BDE80840FFF7CFBF00BF33
:10022C000000000004000020EC020008034AD2F891
:10023C00883043F47003C2F88830704700ED00E05A
:10024C00FEE70000DFF834D00D480E490E4A0023BB
:10025C0002E0D458C4500433C4188C42F9D30B4A6E
:10026C000B4C002301E013600432A242FBD3FFF7D6
:10027C00DDFF00F011F8FFF7E3FF704700000320EB
:10028C0000000020000000200C03000800000020EB
:10029C001C000020FEE7000070B50D4D0D4C641BDA
:1002AC00A4100026A64209D10B4D0C4C00F018F8F6
:1002BC00641BA4100026A64205D170BD55F8043B62
:1002CC0098470136EEE755F8043B98470136F2E7BC
:1002DC0004030008040300080403000808030008D2
:1002EC00F8B500BFF8BC08BC9E467047F8B500BF17
:0802FC00F8BC08BC9E467047E7
:0403040015020008D6
:04030800ED010008FB
:04000005080002519C
:00000001FF
