:020000040800F2
:1000000000000320DD0400082D0500082D05000870
:100010002D0500082D0500082D0500080000000032
:100020000000000000000000000000002D05000896
:100030002D050008000000002D0500082D05000812
:100040002D0500082D0500082D0500082D050008C8
:100050002D0500082D0500082D0500082D050008B8
:100060002D0500082D0500082D0500082D050008A8
:100070002D0500082D0500082D0500082D05000898
:100080002D0500082D0500082D0500082D05000888
:100090002D0500082D0500082D0500082D05000878
:1000A0002D0500082D0500082D0500082D05000868
:1000B0002D0500082D0500082D0500082D05000858
:1000C0002D0500082D0500082D0500082D05000848
:1000D0002D0500082D0500082D0500082D05000838
:1000E0002D0500082D0500082D0500082D05000828
:1000F0002D0500082D0500082D0500082D05000818
:100100002D0500082D0500082D0500082D05000807
:100110002D0500082D0500082D0500082D050008F7
:100120002D0500082D0500082D0500082D050008E7
:100130002D0500082D0500082D0500082D050008D7
:100140002D0500082D0500082D0500082D050008C7
:100150002D0500082D0500082D0500082D050008B7
:100160002D0500082D0500082D0500082D050008A7
:100170002D0500082D0500082D05000800000000D1
:100180002D0500082D0500082D0500082D05000887
:100190002D0500082D0500082D0500082D05000877
:0C01A0002D0500082D0500082D050008A5
:1001AC000348044B834202D0034B03B118477047FA
:1001BC000000002000000020000000000548064B55
:1001CC001B1AD90F01EBA301491002D0034B03B149
:1001DC0018477047000000200000002000000000BD
:1001EC0010B5064C237843B9FFF7DAFF044B13B173
:1001FC000448AFF300800123237010BD00000020E1
:10020C00000000007805000808B5054B1BB1054936
:10021C000548AFF30080BDE80840FFF7CFBF00BF33
:10022C00000000000400002078050008034AD2F802
:10023C00883043F47003C2F88830704700ED00E05A
:10024C0008B500F071F800F077F800F0D1F800F084
:10025C00E7F829E02F498A6942F080428A6133E04D
:10026C002C48816941F4000181613DE01BB112B958
:10027C00294B01221A70284B1B78002B42D1254C9C
:10028C00A36943F00073A36100F0E2F8236903F45F
:10029C000073002B14BF01220022204B1A702BD0AC
:1002AC00A36943F00103A3611A4B1B6903F4805348
:1002BC00002B0CBF01210021194A1170CAD115491C
:1002CC008A6942F480428A61124A126902F400423D
:1002DC00002A0CBF0120002012490870C0D10D4823
:1002EC00816941F080018161002BBFD1002ABDD012
:1002FC00094B00221A70BEE7064A936943F4803317
:10030C009361D1E700F0BCF8024A936943F400739F
:10031C009361C9E7000402401C0000201D0000206E
:10032C001F0000201E000020024A136B43F0020342
:10033C0013637047003802402B4AD2F8003443F064
:10034C000101C2F8001423F0020343F00103C2F8C8
:10035C000034D2F8083443F00101C2F8081423F039
:10036C00020343F00103C2F80834D2F80C3423F032
:10037C000103C2F80C34D2F8183443F48033C2F8B9
:10038C0018341A4B196841F480411960196821F42A
:10039C0000411960586820F080005860986840F45B
:1003AC0080409860986820F400409860D86820F4E9
:1003BC008040D860D86820F40040D860986940F438
:1003CC000000986141F08051C2F80014D2F8083452
:1003DC0043F08073C2F80834D2F8183443F08043E9
:1003EC00C2F81834704700BF0000024000040240FD
:1003FC000A4B1A6822F080721A601A6822F0007296
:10040C001A60DA6822F08072DA60DA6822F0007220
:10041C00DA60DA6842F08072DA60704700040240F9
:10042C000A4B1A6822F080421A601A6822F00042C5
:10043C001A60DA6822F08042DA60DA6822F0004250
:10044C00DA60DA6842F08042DA60704700040240F9
:10045C000A4B1A6822F480221A601A6822F40022CD
:10046C001A60DA6822F48022DA60DA6822F4002258
:10047C00DA60DA6842F40022DA6070470004024065
:10048C00124B1A6822F480221A601A6822F4002295
:10049C001A601A6842F480221A605A6822F40072B8
:1004AC005A609A6822F480229A609A6822F4002298
:1004BC009A609A6842F480229A60DA6822F4802268
:1004CC00DA60DA6822F40022DA6070470004024035
:1004DC00DFF834D00D480E490E4A002302E0D45800
:1004EC00C4500433C4188C42F9D30B4A0B4C002370
:1004FC0001E013600432A242FBD3FFF797FE00F039
:10050C0011F8FFF79DFE704700000320000000204B
:10051C0000000020980500080000002020000020AA
:10052C00FEE7000070B50D4D0D4C641BA4100026A9
:10053C00A64209D10B4D0C4C00F018F8641BA4100A
:10054C000026A64205D170BD55F8043B98470136EC
:10055C00EEE755F8043B98470136F2E790050008A2
:10056C00900500089005000894050008F8B500BF38
:10057C00F8BC08BC9E467047F8B500BFF8BC08BC78
:04058C009E467047D0
:040590001502000848
:04059400ED0100086D
:04000005080004DD0E
:00000001FF
