:020000040800F2
:10000000000003208D040008DD040008DD04000862
:10001000DD040008DD040008DD0400080000000025
:10002000000000000000000000000000DD040008E7
:10003000DD04000800000000DD040008DD04000805
:10004000DD040008DD040008DD040008DD0400080C
:10005000DD040008DD040008DD040008DD040008FC
:10006000DD040008DD040008DD040008DD040008EC
:10007000DD040008DD040008DD040008DD040008DC
:10008000DD040008DD040008DD040008DD040008CC
:10009000DD040008DD040008DD040008DD040008BC
:1000A000DD040008DD040008DD040008DD040008AC
:1000B000DD040008DD040008DD040008DD0400089C
:1000C000DD040008DD040008DD040008DD0400088C
:1000D000DD040008DD040008DD040008DD0400087C
:1000E000DD040008DD040008DD040008DD0400086C
:1000F000DD040008DD040008DD040008DD0400085C
:10010000DD040008DD040008DD040008DD0400084B
:10011000DD040008DD040008DD040008DD0400083B
:10012000DD040008DD040008DD040008DD0400082B
:10013000DD040008DD040008DD040008DD0400081B
:10014000DD040008DD040008DD040008DD0400080B
:10015000DD040008DD040008DD040008DD040008FB
:10016000DD040008DD040008DD040008DD040008EB
:10017000DD040008DD040008DD04000800000000C4
:10018000DD040008DD040008DD040008DD040008CB
:10019000DD040008DD040008DD040008DD040008BB
:0C01A000DD040008DD040008DD04000898
:1001AC000348044B834202D0034B03B118477047FA
:1001BC000000002000000020000000000548064B55
:1001CC001B1AD90F01EBA301491002D0034B03B149
:1001DC0018477047000000200000002000000000BD
:1001EC0010B5064C237843B9FFF7DAFF044B13B173
:1001FC000448AFF300800123237010BD00000020E1
:10020C00000000002805000808B5054B1BB1054986
:10021C000548AFF30080BDE80840FFF7CFBF00BF33
:10022C00000000000400002028050008034AD2F852
:10023C00883043F47003C2F88830704700ED00E05A
:10024C0082B010E0009B01330093009A0B4B9A4252
:10025C00F8DD0B4B4FF400229A6100230193019AB5
:10026C00064B9A4205DD064B08229A610023009347
:10027C00EBE7019B01330193F1E700BF3F420F0015
:10028C000004024008B500F007F800F00DF800F08B
:10029C00CFF8FFF7D5FF0000024A136B43F00203BF
:1002AC001363704700380240604B1A6842F080427A
:1002BC001A601A6822F000421A605A6822F400424E
:1002CC005A609A6842F080429A609A6822F0004222
:1002DC009A60DA6822F08042DA60DA6822F08042B2
:1002EC00DA609A6942F000429A611A6842F08062C0
:1002FC001A601A6822F000621A605A6822F40052DE
:10030C005A609A6842F080629A609A6822F00062A1
:10031C009A60DA6822F08062DA60DA6822F0806231
:10032C00DA609A6942F000529A611A6842F080725F
:10033C001A601A6822F000721A605A6822F480520D
:10034C005A609A6842F080729A609A6822F0007241
:10035C009A60DA6822F08072DA60DA6822F08072D1
:10036C00DA609A6942F080529A611A6842F48062AB
:10037C001A601A6822F400621A605A6822F020028D
:10038C005A609A6842F480629A609A6822F4006219
:10039C009A60DA6822F48062DA60DA6822F48062A9
:1003AC00DA609A6942F400129A611A6842F04002CB
:1003BC001A601A6822F080021A605A6822F0080249
:1003CC005A609A6842F040029A609A6822F0800261
:1003DC009A60DA6822F04002DA60DA6822F04002B1
:1003EC00DA609A6942F400229A611A6842F48072C7
:1003FC001A601A6822F400721A605A6822F010020D
:10040C005A609A6842F480729A609A6822F4007278
:10041C009A60DA6822F48072DA60DA6822F4807208
:10042C00DA609A6942F480129A61704700040240C3
:10043C00124B1A6822F00C021A60DA6822F00C02D5
:10044C00DA60DA6842F00802DA601A6822F4405284
:10045C001A60DA6822F44052DA60DA6842F4005228
:10046C00DA601A6822F030021A60DA6822F0300280
:10047C00DA60DA6842F02002DA6070470004024069
:10048C00DFF834D00D480E490E4A002302E0D45850
:10049C00C4500433C4188C42F9D30B4A0B4C0023C0
:1004AC0001E013600432A242FBD3FFF7BFFE00F061
:1004BC0011F8FFF7E7FE7047000003200000002052
:1004CC000000002048050008000000201C0000204F
:1004DC00FEE7000070B50D4D0D4C641BA4100026FA
:1004EC00A64209D10B4D0C4C00F018F8641BA4105B
:1004FC000026A64205D170BD55F8043B984701363D
:10050C00EEE755F8043B98470136F2E74005000842
:10051C00400500084005000844050008F8B500BF78
:10052C00F8BC08BC9E467047F8B500BFF8BC08BCC8
:04053C009E46704720
:040540001502000898
:04054400ED010008BD
:040000050800048D5E
:00000001FF
