:020000040800F2
:1000000000000320890B0008D90B0008D90B000859
:10001000D90B0008D90B0008D90B0008000000001C
:10002000000000000000000000000000D90B0008E4
:10003000D90B000800000000D90B0008D90B0008FC
:10004000D90B0008D90B0008D90B0008D90B000800
:10005000D90B0008D90B0008D90B0008D90B0008F0
:10006000D90B0008D90B0008D90B0008D90B0008E0
:10007000D90B0008D90B0008D90B0008D90B0008D0
:10008000D90B0008D90B0008D90B0008D90B0008C0
:10009000D90B0008D90B0008D90B0008D90B0008B0
:1000A000D90B0008D90B0008D90B0008D90B0008A0
:1000B000D90B0008D90B0008D90B0008D90B000890
:1000C000D90B0008D90B0008D90B0008D90B000880
:1000D000D90B0008D90B0008D90B0008D90B000870
:1000E000D90B0008D90B0008D90B0008D90B000860
:1000F000D90B0008D90B0008D90B0008D90B000850
:10010000D90B0008D90B0008D90B0008D90B00083F
:10011000D90B0008D90B0008D90B0008D90B00082F
:10012000D90B0008D90B0008D90B0008D90B00081F
:10013000D90B0008D90B0008D90B0008D90B00080F
:10014000D90B0008D90B0008D90B0008D90B0008FF
:10015000D90B0008D90B0008D90B0008D90B0008EF
:10016000D90B0008D90B0008D90B0008D90B0008DF
:10017000D90B0008D90B0008D90B000800000000BB
:10018000D90B0008D90B0008D90B0008D90B0008BF
:10019000D90B0008D90B0008D90B0008D90B0008AF
:0C01A000D90B0008D90B0008D90B00088F
:1001AC000348044B834202D0034B03B118477047FA
:1001BC000800002008000020000000000548064B45
:1001CC001B1AD90F01EBA301491002D0034B03B149
:1001DC0018477047080000200800002000000000AD
:1001EC0010B5064C237843B9FFF7DAFF044B13B173
:1001FC000448AFF300800123237010BD08000020D9
:10020C0000000000240C000808B5054B1BB1054983
:10021C000548AFF30080BDE80840FFF7CFBF00BF33
:10022C00000000000C000020240C0008034AD2F847
:10023C00883043F47003C2F88830704700ED00E05A
:10024C0030B589B000F046F800F04CF800F00EF92B
:10025C001D4B93E803000690ADF81C100490ADF80C
:10026C00141007E0039B01330393039A42F20F73BC
:10027C009A42F7DD00F0D4F9ADF80800029800F0CE
:10028C003BFA06A8029B90E8060000F039FB04AC90
:10029C00BDF80830ADF800300C4B1B7894E8060024
:1002AC00204600F069FA0A4DBDF81C30ADF800305C
:1002BC00069B94E80600288800F07CFB2B88013311
:1002CC002B8000230393D0E73C0C00080000002097
:1002DC0026000020024A136B43F00203136370479D
:1002EC0000380240604B1A6842F080421A601A686B
:1002FC0022F000421A605A6822F400425A609A684E
:10030C0042F080429A609A6822F000429A60DA6861
:10031C0022F08042DA60DA6822F08042DA609A6970
:10032C0042F000429A611A6842F080621A601A68C0
:10033C0022F000621A605A6822F400525A609A68DD
:10034C0042F080629A609A6822F000629A60DA68E1
:10035C0022F08062DA60DA6822F08062DA609A69F0
:10036C0042F000529A611A6842F080721A601A6860
:10037C0022F000721A605A6822F480525A609A680D
:10038C0042F080729A609A6822F000729A60DA6881
:10039C0022F08072DA60DA6822F08072DA609A6990
:1003AC0042F080529A611A6842F480621A601A68AC
:1003BC0022F400621A605A6822F020025A609A688D
:1003CC0042F480629A609A6822F400629A60DA6859
:1003DC0022F48062DA60DA6822F48062DA609A6968
:1003EC0042F400129A611A6842F040021A601A68CC
:1003FC0022F080021A605A6822F008025A609A6849
:10040C0042F040029A609A6822F080029A60DA68A0
:10041C0022F04002DA60DA6822F04002DA609A696F
:10042C0042F400229A611A6842F480721A601A68C7
:10043C0022F400721A605A6822F010025A609A680C
:10044C0042F480729A609A6822F400729A60DA68B8
:10045C0022F48072DA60DA6822F48072DA609A69C7
:10046C0042F480129A61704700040240304B1A68C3
:10047C0022F004021A601A6822F008021A605A6804
:10048C0022F002025A609A6842F004029A609A685A
:10049C0022F008029A60DA6822F00402DA60DA6864
:1004AC0022F00802DA60DA6842F00802DA601A68B0
:1004BC0022F480521A601A6822F400521A605A68A8
:1004CC0022F040025A609A6842F480529A609A680C
:1004DC0022F400529A60DA6822F48052DA60DA6808
:1004EC0022F40052DA60DA6842F40052DA601A68D8
:1004FC0022F010021A601A6822F020021A605A6860
:10050C0022F004025A609A6842F010029A609A68CB
:10051C0022F020029A60DA6822F01002DA60DA68BF
:10052C0022F02002DA60DA6842F02002DA607047CA
:10053C00000402400138052827D8DFE800F0030941
:10054C000F151B21114A936943F4004393617047C3
:10055C000E4A936943F40053936170470B4A9369B5
:10056C0043F4805393617047084A936943F0200326
:10057C0093617047054A936943F008039361704790
:10058C00024A936943F010039361704700040240E0
:10059C000138052827D8DFE800F003090F151B21C7
:1005AC00114A936943F00043936170470E4A936973
:1005BC0043F00053936170470B4A936943F08053A7
:1005CC0093617047084A936943F400139361704731
:1005DC00054A936943F4002393617047024A936977
:1005EC0043F480139361704700040240022808D042
:1005FC0003280BD001280ED1084B1869C0F340001A
:10060C007047064B1869C0F380107047034B18698C
:10061C00C0F3800070470020704700BF0004024008
:10062C0030B583B00120FFF7E1FF28B30024254645
:10063C00304B1B689C4205D20120FFF7D7FF08B155
:10064C000134F4E701238DF800302A4B1B689D42DE
:10065C0034BF002501258DF80150BDF80030ADF8F0
:10066C00043000209DF8043063F307009DF805303A
:10067C0063F30F2003B030BD0220FFF7B7FFB8B112
:10068C00002425461B4B1B689C4205D20220FFF719
:10069C00ADFF08B10134F4E702238DF80030154B9F
:1006AC001B689D4234BF002501258DF80150D4E70D
:1006BC000320FFF79BFF28B900238DF800308DF83D
:1006CC000130CAE7002425460A4B1B689C4205D220
:1006DC000320FFF78BFF08B10134F4E703238DF8F7
:1006EC000030044B1B689D4234BF002501258DF85A
:1006FC000150B2E70400002084B0ADF804009DF86E
:10070C000430012B03D0022B1AD004B070479DF893
:10071C000520002AF7D0164A13780133DBB2137088
:10072C00062B02D9134606221A700023029302E00C
:10073C00029B01330293029A0E4B9A42F8DDE4E7D6
:10074C009DF80530002BE0D0094A1378013BDBB251
:10075C00137013B9134601221A700023039302E09D
:10076C00039B01330393039A024B9A42F8DDCCE7C7
:10077C00000000209F86010082B0844602A800E998
:10078C0006009DF80820032A0BD0032A63D000989A
:10079C00CCF80000BDF80430ACF80430604602B070
:1007AC0070479DF809100029EFD1013B052BEED8BD
:1007BC00DFE803F003101D2A37449DF800300133A5
:1007CC00DBB28DF800304D4A12789342DFD38DF8AE
:1007DC000020DCE79DF801300133DBB28DF80130ED
:1007EC00464A12789342D2D38DF80120CFE79DF878
:1007FC0002300133DBB28DF80230404A127893425A
:10080C00C5D38DF80220C2E79DF803300133DBB26B
:10081C008DF80330394A12789342B8D38DF80320FF
:10082C00B5E79DF804300133DBB28DF80430334A60
:10083C0012789342ABD38DF80420A8E79DF80530CD
:10084C000133DBB28DF805302C4A127893429ED3DB
:10085C008DF805209BE79DF80920002A97D0013BD5
:10086C00052B94D8DFE803F0030E1A26323E9DF8D0
:10087C000030013BDBB28DF80030002B87D18DF8B6
:10088C00003084E79DF80130013BDBB28DF801307C
:10089C00002B7FF47CAF8DF8013078E79DF80230A7
:1008AC00013BDBB28DF80230002B7FF470AF8DF87A
:1008BC0002306CE79DF80330013BDBB28DF803305E
:1008CC00002B7FF464AF8DF8033060E79DF80430A3
:1008DC00013BDBB28DF80430002B7FF458AF8DF860
:1008EC00043054E79DF80530013BDBB28DF8053040
:1008FC00002B7FF44CAF8DF8053048E70100002049
:10090C0086B0844602A880E80600ADF8043003C81F
:10091C000490ADF814109DF80430012B30D0022B4C
:10092C003AD0234B1B781A1E18BF01228DF81020C9
:10093C00012B94BF002201228DF81120022B94BFB1
:10094C00002201228DF81220032B94BF00220122D9
:10095C008DF81320042B94BF002201228DF8142053
:10096C00052B94BF002301238DF815300498CCF887
:10097C000000BDF81430ACF80430604606B0704787
:10098C009DF80520002ACAD1094B1B78052BC8D825
:10099C000133074A1370C4E79DF80530002BC0D112
:1009AC00034B1B78002BBCD0013B014A1370B8E7FA
:1009BC002400002082B02DE9F04385B0044668463F
:1009CC0080E806000D939DF834300BB19DF8003093
:1009DC008DF808309DF83590B9F1000F01D09DF8D5
:1009EC0001908DF809909DF83680B8F1000F01D078
:1009FC009DF802808DF80A809DF837700FB19DF834
:100A0C0003708DF80B709DF838600EB19DF8046082
:100A1C008DF80C609DF839500DB19DF805508DF88E
:100A2C000D50002B7AD003EB830303EB83039B0065
:100A3C009BB2B4FBF3F203FB124292B2B2EB530F34
:100A4C0070D20120FFF776FDB9F1000F6ED009EBE3
:100A5C00890909EB89094FEA89091FFA89F9B4FB5D
:100A6C00F9F309FB13439BB2B3EB590F62D202208B
:100A7C00FFF760FDB8F1000F60D008EB880808EBB9
:100A8C0088084FEA88081FFA88F8B4FBF8F308FBCB
:100A9C0013439BB2B3EB580F54D20320FFF74AFD1C
:100AAC00002F53D007EB870707EB8707BF00BFB2B8
:100ABC00B4FBF7F307FB13439BB2B3EB570F49D2CD
:100ACC000420FFF737FD002E48D006EB860606EB18
:100ADC008606B600B6B2B4FBF6F306FB13439BB224
:100AEC00B3EB560F3ED20520FFF724FD002D3DD071
:100AFC0005EB850505EB8505AD00ADB2B4FBF5F353
:100B0C0005FB1344A4B2B4EB550F33D20620FFF708
:100B1C0011FD05B0BDE8F04302B070470120FFF7AE
:100B2C0037FD91E70120FFF733FD8DE70220FFF73A
:100B3C002FFD9FE70220FFF72BFD9BE70320FFF71C
:100B4C0027FDADE70320FFF723FDA9E70420FFF7FE
:100B5C001FFDB8E70420FFF71BFDB4E70520FFF7E6
:100B6C0017FDC3E70520FFF713FDBFE70620FFF7CE
:100B7C000FFDCEE70620FFF70BFDCAE7DFF834D0F8
:100B8C000D480E490E4A002302E0D458C4500433D9
:100B9C00C4188C42F9D30B4A0B4C002301E01360B0
:100BAC000432A242FBD3FFF741FB00F011F8FFF730
:100BBC0047FB7047000003200000002008000020C5
:100BCC004C0C00080800002028000020FEE7000064
:100BDC0070B50D4D0D4C641BA4100026A64209D116
:100BEC000B4D0C4C00F018F8641BA4100026A64208
:100BFC0005D170BD55F8043B98470136EEE755F822
:100C0C00043B98470136F2E7440C0008440C0008FA
:100C1C00440C0008480C0008F8B500BFF8BC08BC30
:100C2C009E467047F8B500BFF8BC08BC9E4670479E
:080C3C000101010101010000AA
:040C4400150200088D
:040C4800ED010008B2
:080C4C000204000020A10700D2
:0400000508000B895B
:00000001FF
